:020000040800F2
:1000000068170020A5030008F1010008F3010008AB
:10001000F7010008FB010008FF01000800000000D4
:10002000000000000000000000000000B70300080E
:10003000F102000800000000F3020008F5020008C9
:10004000BF030008BF030008BF030008BF03000888
:10005000BF030008BF030008BF030008BF03000878
:10006000BF030008BF030008BF030008BF03000868
:10007000BF030008BF030008BF030008BF03000858
:10008000BF030008BF030008BF030008BF03000848
:10009000BF030008BF030008BF030008BF03000838
:1000A000BF030008BF030008BF030008BF03000828
:1000B00003020008BF030008BF030008BF030008D5
:1000C000BF030008BF030008BF030008BF03000808
:1000D000BF030008C3390008BF030008BF030008BE
:1000E000BF030008BF030008BF030008BF030008E8
:1000F000BF030008BF030008BF030008BF030008D8
:10010000BF030008BF030008BF030008BF030008C7
:10011000BF030008BF030008BF030008BF030008B7
:10012000BF030008BF030008BF030008BF030008A7
:10013000DFF80CD006F0F0FF00480047450100084A
:10014000681700200024482003F0ACF803F03DFBC2
:1001500003F055FB03F07BFB03F0FAF903F024F8FE
:1001600003F0C0FB02F08CFB03F056FA03F0B6FA82
:1001700003F06BFA0CA007F033F811A007F030F889
:10018000002006F0D5FB0DE064B9C821134806F045
:10019000F0FB124912A003F01AFD641C214612A0C4
:1001A00007F01EF8F0E70000573535303020496E73
:1001B000697420436F6D706C657465210D0A0000D1
:1001C00053746172742054435020436C69656E749B
:1001D0002054657374210D0A00000000900800206F
:1001E00077697A6C6564000025640A0D00000000E0
:1001F000704700BFFEE700BFFEE700BFFEE700BF9D
:10020000FEE72DE9F04F89B04FF014094FF0000AD6
:1002100000240121880701F034FE002865D036480B
:100220000068401C3449086034480068401C334969
:1002300008603148006847F23051884236D102A840
:1002400005F06EFD9DF8090006F044FD8346584612
:1002500006F075FD05462A460B4629A006F0C0FFAC
:100260009DF8080006F036FD0390039806F067FD40
:1002700005462A460B4627A006F0B2FF039806F073
:100280005EFD05460E46584606F059FD07463A46BD
:100290000B4625A12E48CDE9005606F0B1FF2C49AA
:1002A0002CA003F019FC00201349086013480068D3
:1002B0004EF66021884214D129A006F091FF00205B
:1002C0000E490860494604A805F0C6FE04462146CA
:1002D00004A803F0BDFE8246A24502D025A006F088
:1002E0007FFF0121880701F0DDFD09B0BDE8F08F37
:1002F0007047704770470000180000201C00002065
:1003000074656D70657261747572652069732025FE
:100310006600000068756D696469747920697320EE
:1003200025660D0A000000007B2274656D70657201
:100330006174757265223A252E31662C2268756DBE
:100340006964697479223A252E31667D00000000C7
:100350005809002077697A5F7075626C697368006C
:10036000B7A2CBCD50494E47524551B1A8CEC40D8E
:100370000A00000050494E4720636F6E6E6563743B
:10038000207472616E73706F72745F73656E645007
:1003900061636B6574427566666572206572726F23
:1003A000720A0D000648804706480047FEE7FEE750
:1003B000FEE7FEE7FEE7FEE7FEE7FEE7FEE7FEE715
:1003C000A7040008310100080CB50020019000903E
:1003D0006C48006840F480306A49086000BF694892
:1003E000006800F4003000900198401C01900098D3
:1003F00018B90198B0F5A06FF1D16248006800F417
:10040000003010B10120009001E000200090009821
:10041000012843D15C48006840F010005A49086048
:100420000846006820F0030008600846006840F0B5
:1004300002000860534840685249486008464068D6
:1004400048600846406840F480604860084640685C
:1004500020F47C1048600846406840F4E81048608A
:100460000846006840F08070086000BF454800689A
:1004700000F000700028F9D04248406820F00300E6
:10048000404948600846406840F00200486000BFAC
:100490003C48406800F00C000828F9D10CBD10B5AC
:1004A000FFF792FF10BD10B53648006840F001001C
:1004B000344908600846406834490840314948607A
:1004C00008460068324908402E490860084600681E
:1004D00020F4802008600846406820F4FE00486050
:1004E0004FF41F008860FFF7DAFF4FF000602949E2
:1004F000086010BD10B5002100200022214B5B6870
:1005000003F00C0121B1042906D0082928D107E005
:10051000214B224C236027E01F4B204C236023E01B
:10052000184B5B6803F47010164B5B6803F4803261
:10053000022303EB904022B9194B4343174C23602D
:100540000DE0104B5B6803F4003323B1144B4343BD
:10055000124C236003E0104B4343104C236003E034
:100560000D4B0E4C236000BF00BF064B5B68C3F30E
:1005700003130C4CE15C094B1B68CB40074C236018
:1005800010BD000000100240002002400000FFF8F3
:10059000FFFFF6FE08ED00E000127A0020000020C8
:1005A00000093D002400002031490143314A116017
:1005B000704770B5002100230F22C47804B32D4C7E
:1005C000246804F4E064C4F5E064210AC1F1040382
:1005D000CA40447804FA03F18478144021430901A5
:1005E000254C0678A155047804F01F050124AC4081
:1005F00005786D11AD0005F1E025C5F8004109E071
:10060000047804F01F050124AC401C4D06787611D7
:1006100045F8264070BD1A4A0A400243154B1B1F7D
:100620001A60704739B1134A121D12680243114B08
:100630001B1D1A6006E00F4A121D126882430D4B03
:100640001B1D1A607047042808D14FF0E02109698A
:1006500041F004014FF0E022116107E04FF0E0218A
:10066000096921F004014FF0E02211617047000098
:100670000000FA050CED00E000E400E080E100E09D
:1006800080FFFF1F10B50446CC48844208D10121E9
:10069000042000F02DFB0021042000F029FB46E09F
:1006A000C748844208D10121082000F021FB002125
:1006B000082000F01DFB3AE0C248844208D1012125
:1006C000102000F015FB0021102000F011FB2EE09F
:1006D000BD48844208D10121202000F009FB0021FF
:1006E000202000F005FB22E0B848844208D1012117
:1006F000402000F0FDFA0021402000F0F9FA16E059
:10070000B348844208D10121802000F0F1FA002191
:10071000802000F0EDFA0AE0AE48844207D10121C2
:10072000801500F0E5FA0021A01500F0E1FA10BDF7
:1007300010B50121084600F0DBFA0021012000F08D
:10074000D7FA10BD2DE9F041024600250026002011
:1007500000230024002791F803C00CF00F0591F846
:1007600003C00CF0100CBCF1000F03D091F802C0D4
:100770004CEA050591F800C0BCF1000F31D01468B7
:1007800000202BE04FF0010C0CFA00F3B1F800C090
:100790000CEA03069E4220D183004FF00F0C0CFAA6
:1007A00003F7BC4305FA03FC4CEA040491F803C0C8
:1007B000BCF1280F06D14FF0010C0CFA00FCC2F876
:1007C00014C00AE091F803C0BCF1480F05D14FF006
:1007D000010C0CFA00FCC2F810C0401C0828D1D350
:1007E0001460B1F800C0BCF1FF0F34DD5468002084
:1007F0002EE000F1080C4FF0010808FA0CF3B1F8F4
:1008000000C00CEA03069E4221D183004FF00F0C7A
:100810000CFA03F7BC4305FA03FC4CEA040491F814
:1008200003C0BCF1280F05D100F1080C08FA0CF840
:10083000C2F8148091F803C0BCF1480F07D100F151
:10084000080C4FF0010808FA0CF8C2F81080401CA0
:100850000828CED35460BDE8F0814FF6FF710180C7
:10086000022181700421C170704702460020936804
:100870000B400BB1012000E0002070470146886862
:1008800080B2704702460020D3680B400BB10120B4
:1008900000E0002070470146C86880B270470161DF
:1008A0007047416170470AB1016100E041617047E2
:1008B000C16070474FF480320A4382618161826176
:1008C00082698269704702460020434B18684FF6E0
:1008D0008073184040EA021008433F4B186070478D
:1008E0003E49C8617047F0B50A4600230024002144
:1008F000002500F00046B6F1004F02D1364EF169F6
:1009000001E0354E7168C0F3034583B200F4401630
:10091000B6F5401F08D121F070612F4E766826F0A1
:1009200070662D4F7E6012E000F48016B6F5801FD1
:1009300006D1032606FA05F4A14341F0706106E0F2
:10094000460D360103FA06F6B14341F0706122B15B
:10095000460D360103FA06F6314300F00046B6F1C3
:10096000004F02D11C4EF16101E01B4E7160F0BDE1
:1009700030B500228B071C0F0F2303FA04F2164B2D
:1009800008338C1053F824309343134C08348D10E3
:1009900044F8253023468C1053F824308C07240F5C
:1009A00000FA04F423430C4C08348D1044F825302D
:1009B00030BD0A49DC310860704700000008014082
:1009C000000C0140001001400014014000180140DB
:1009D000001C0140002001400000014000002042B6
:1009E000DF48006840F00100DD49086008464068C3
:1009F000DC490840DA49486008460068DA4908409E
:100A0000D74908600846006820F48020086008463E
:100A1000406820F4FE0048604FF41F008860704773
:100A2000CF49096821F48031CD4A11601146096827
:100A300021F480211160B0F5803F03D0B0F5802F04
:100A40000ED106E0C649096841F48031C44A1160FC
:100A500007E0C349096841F4A021C14A116000E0E0
:100A600000BF00BF704710B50146002200230020E0
:100A70004A11012A02D1BA4C236806E0022A02D1A7
:100A8000B74C236A01E0B64C636A01F01F020124EF
:100A900094401C400CB1012000E0002010BD38B58E
:100AA000002000900024002500BF3120FFF7DBFF6D
:100AB00005460098401C00900098B0F5A06F01D04A
:100AC000002DF2D03120FFF7CEFF08B1012400E065
:100AD0000024204638BD01460020A14A106820F0BD
:100AE000F80040EAC10010607047A04908607047F4
:100AF000024600209A4B586820F47C1042EA010319
:100B00001843974B586070479849086670470146EC
:100B10000020934A506820F003000843506070475B
:100B20008F48406800F00C007047014600208C4A56
:100B3000506820F0F00008435060704701460020E4
:100B4000874A506820F4E0600843506070470146CF
:100B50000020834A506820F4605040EAC100506091
:100B6000704729B17E4A527A02437D4B5A7204E0A3
:100B70007B4A527A82437A4B5A7270477B49D8310A
:100B80000860704701460020754A506820F44040D4
:100B90000843506070470021714A20321170704A3A
:100BA00082F82010012802D004280AD104E0012193
:100BB0006B4A2032117005E00521694A203211701C
:100BC00000E000BF00BF7047694908607047644992
:100BD000096A0143624A11627047654944390860F5
:100BE000704730B500210022002400235C4D6D6861
:100BF00005F00C0121B1042905D0082923D105E015
:100C00005C4D056022E05B4D05601FE0544D6D6852
:100C100005F47012524D6D6805F48034022505EB21
:100C200092421CB9544D554305600BE04C4D6D6824
:100C300005F400351DB1504D5543056002E04D4DA2
:100C40005543056002E04B4D056000BF00BF444DB9
:100C50006D6805F0F0010909484D6B5C0568DD40E1
:100C600045603F4D6D6805F4E061090A434D6B5CDA
:100C70004568DD4085603A4D6D6805F46051C90AEC
:100C80003E4D6B5C4568DD40C560354D6D6805F4D3
:100C90004041890B3A4D6B5CC568B5FBF3F50561C6
:100CA00030BD29B12E4A526902432D4B5A6104E0EE
:100CB0002B4A526982432A4B5A61704729B1284A0C
:100CC00092690243264B9A6104E0254A9269824365
:100CD000234B9A61704729B1214AD2690243204BC4
:100CE000DA6104E01E4AD26982431D4BDA61704723
:100CF00029B11B4AD2680243194BDA6004E0184A52
:100D0000D2688243164BDA60704729B1144A1269DF
:100D10000243134B1A6104E0114A12698243104BDB
:100D20001A61704712494039086070470F49C8641A
:100D300070470B49C87170470948406A40F080709D
:100D400007494862704701460020054A92680A40F8
:100D50000AB1012000E00020704701498872704705
:100D6000001002400000FFF8FFFFF6FE00004242C4
:100D70008004424200127A0000093D003400002045
:100D80004400002010B50446BE48844208D1012129
:100D90008014FFF7ADFF0021A014FFF7A9FF16E0B4
:100DA000B948844208D101210014FFF7AEFF0021A9
:100DB0002014FFF7AAFF0AE0B448844207D10121BA
:100DC000C013FFF7A2FF0021E013FFF79EFF10BD45
:100DD00010B50022028802F441520B884C8823434C
:100DE0008C882343CC8823430C8923434C89234399
:100DF0008C892343CC8923431A430280838B4FF28F
:100E0000FF74234083830B8A038210BD2DE9F04FCA
:100E100085B005460C464FF0000902274FF0000848
:100E20004FF0010B0026B246A88B4FF2400108405C
:100E3000A88302202884B5F81C90A068022801D15C
:100E400000BF38E0A08810B94FF0010B01E04FF06F
:100E5000020B8D48854200D100E000BF6846FFF7D5
:100E6000C0FEDDF800A0E088B0F5007F0AD14FEAAF
:100E70001A2000EB80004000A168B0FBF1F0401D9B
:100E800086B20BE04FEA4B10BAFBF0F000EB8000AB
:100E90004000A168B0FBF1F0401D86B20A20B6FB0D
:100EA000F0F606F00108A6EB0800C0F34F074FF676
:100EB000FF7000EA0828022F01DBFF2F02DD022766
:100EC0004FF00008E08840EA080038432884A088F2
:100ED000A1890843618808432188084340F40060E1
:100EE00040EA0909A5F81C9005B0BDE8F08F002183
:100EF000018041808180C180018141818181C181E6
:100F00000721018270470021018041808180C180DA
:100F10000221816000218181704721B1028842F065
:100F20004002028004E002884FF6BF731A4002803C
:100F3000704721B1828B42F48062828304E0828B0D
:100F40004FF6FF331A408283704730B500240023E8
:100F50000C110125A540ABB21AB185881D438580CF
:100F600002E085889D43858030BD1AB183880B439C
:100F7000838002E083888B43838070478181704740
:100F80000146888970474FF6FF62914204D002887B
:100F900042F48072028004E002884FF6FF631A4038
:100FA0000280704721B1828842F00402828004E00E
:100FB00082884FF6FB731A408280704702884FF296
:100FC000FF731A40028002880A430280704701883A
:100FD00041F480510180704721B1028842F40052EF
:100FE000028004E002884DF6FF731A4002807047C9
:100FF00002460020012901D0108B00E0908A704742
:101000000146088A7047B1F5804F04D1028842F446
:101010008042028004E002884BF6FF731A4002808F
:1010200070470246002013890B400BB1012000E0FD
:1010300000207047CA4302817047F0B50246002085
:1010400000240023002501F00F070126BE40B4B2A2
:101050000B1101269E40B3B2968806EA0305168955
:10106000264016B10DB1012000E00020F0BD10B502
:10107000002201F00F040123A3409AB2D34303815D
:1010800010BD00000030014000380040003C00402E
:1010900010B50446FE48844208D10121C014FFF770
:1010A00027FE0021E014FFF723FEC4E0B4F1804FD7
:1010B00008D101210846FFF728FE00210120FFF793
:1010C00024FEB8E0F348844208D101210220FFF752
:1010D0001CFE00210220FFF718FEACE0EE4884421F
:1010E00008D101210420FFF710FE00210420FFF7A2
:1010F0000CFEA0E0E948844208D101210820FFF756
:1011000004FE00210820FFF700FE94E0E44884423A
:1011100008D101211020FFF7F8FD00211020FFF772
:10112000F4FD88E0DF48844208D101212020FFF748
:10113000ECFD00212020FFF7E8FD7CE0DA48844246
:1011400008D101214014FFF7D3FD00216014FFF7FF
:10115000CFFD70E0D548844209D10121C804FFF7D2
:10116000C7FD00214FF40020FFF7C2FD63E0D04827
:10117000844209D101210805FFF7BAFD00214FF48F
:101180008010FFF7B5FD56E0CA48844209D101211D
:101190004805FFF7ADFD00214FF40010FFF7A8FD53
:1011A00049E0C548844208D101214020FFF7ADFD48
:1011B00000214020FFF7A9FD3DE0C048844208D14E
:1011C00001218020FFF7A1FD00218020FFF79DFD78
:1011D00031E0BB48844208D101218015FFF795FD1D
:1011E0000021A015FFF791FD25E0B648844209D102
:1011F00001210804FFF77CFD00214FF48030FFF748
:1012000077FD18E0B048844209D101214804FFF776
:101210006FFD00214FF40030FFF76AFD0BE0AB4893
:10122000844208D101218804FFF762FD00214FF4B8
:101230008020FFF75DFD10BD00220288944B98428C
:101240000ED0994B98420BD0B0F1804F08D0914B03
:10125000984205D0904B984202D0904B984204D1CE
:101260004FF68F731A404B881A438D4B984207D024
:101270008C4B984204D04FF6FF431A40CB881A4358
:1012800002808B8883850B880385814B98420BD025
:10129000854B984208D08B4B984205D08A4B984298
:1012A00002D08A4B984201D10B7A038601238382B4
:1012B000704770B5002400220023058C4FF6FE769F
:1012C00035400584028C8388048B4FF68F752C4043
:1012D000B51E2C400D882C43751E2A400D892A43CB
:1012E0004D882A436A4DA8420BD06F4DA84208D0C2
:1012F000744DA84205D0744DA84202D0734DA84247
:1013000013D14FF6F7752A404D892A434FF6FB75E6
:101310002A408D882A434FF6FF652B404FF6FF5534
:101320002B408D892B43CD892B4383800483CD882B
:101330008586028470BD70B5002400220023058CD0
:101340004FF6EF7635400584028C8388048B48F68F
:10135000FF752C404FF6FF452C400D884FF6FF7669
:1013600006EA05252C434FF6DF752A400D8906EA6B
:1013700005152A434D8806EA05152A43444DA8421F
:1013800002D0494DA8421DD14FF67F752A404D89A4
:101390004FF6FF7606EA05152A434FF6BF752A4039
:1013A0008D8806EA05152A434FF6FF352B404FF28C
:1013B000FF752B408D8906EA85052B43CD8906EA0A
:1013C00085052B4383800483CD880587028470BD07
:1013D00070B5002400220023058C4FF6FF663540CF
:1013E0000584028C8388848B4FF68F752C404FF6D2
:1013F000FC752C400D882C434FF6FF552A400D8973
:101400004FF6FF7606EA05252A434D8806EA0525AC
:101410002A431F4DA84202D0234DA8421DD14FF2AE
:10142000FF752A404D894FF6FF7606EA05252A43C7
:101430004FF6FF352A408D8806EA05252A434EF6E9
:10144000FF752B404DF6FF752B408D8906EA05157B
:101450002B43CD8906EA05152B4383808483CD88F1
:101460008587028470BD70B5002200230024058C9E
:101470004EF6FF7635400584038C8488828B48F6CF
:10148000FF752A404FF6FF452A400D8820E00000F6
:10149000002C01400004004000080040000C004007
:1014A000001000400014004000340140004C014096
:1014B000005001400054014000180040001C004052
:1014C000002000400040014000440140004801402D
:1014D0004FF6FF7606EA05252A434DF6FF752B40A9
:1014E0000D8906EA05352B434D8806EA05352B4361
:1014F000FA4DA84202D0FA4DA84208D14BF6FF752A
:101500002C408D894FF6FF7606EA85152C438480A2
:101510008283CD88A0F84050038470BD828B4FF247
:10152000FF331A408283828B4FF6FF7303EA012355
:101530001A4382837047F0B50C46154600220021FD
:101540000026078C4EF6FF7C07EA0C070784828B87
:10155000018C4FF6FF7707EA043640F6FF473A4022
:101560004FF6FF7707EA05273A434FF6FF7707EA7A
:1015700003373A43D94FB8420ED0D94FB8420BD0B7
:10158000B0F1804F08D0D74FB84205D0D64FB842FF
:1015900002D0D64FB84206D14DF6FF77394046F417
:1015A0008057394305E047F6FF57394044F48057E8
:1015B000394382830184F0BD828B4FF6F3731A4066
:1015C0008283828B0A4382837047F0B50C461546AE
:1015D000002200210026078C4FF6FF6C07EA0C075B
:1015E0000784828B018C4FF6FF7707EA04264FF6BB
:1015F0000C773A404FF6FF7707EA03172F433A4339
:10160000B64FB8420ED0B64FB8420BD0B0F1804FB3
:1016100008D0B44FB84205D0B34FB84202D0B34F50
:10162000B84206D14FF6FF57394046F48077394328
:1016300005E04FF2FF57394044F480773943828305
:101640000184F0BD028B4FF2FF331A400283028BFC
:101650004FF6FF7303EA01231A4302837047F0B584
:101660000C461546002200210026078C4FF6EF7C21
:1016700007EA0C070784028B018C4FF6FF7707EA15
:10168000041640F6FF473A404FF6FF7707EA033764
:101690003A434FF6FF7707EA05273A438F4FB842A0
:1016A0000ED08F4FB8420BD0B0F1804F08D08D4F85
:1016B000B84205D08C4FB84202D08C4FB84206D108
:1016C0004FF6DF77394046F01007394305E04FF613
:1016D0005F77394044F01007394302830184F0BD3D
:1016E000028B4FF6F3731A400283028B0A43028384
:1016F0007047F0B50C46154600220021068C4FF6C7
:10170000FE773E400684028B018C4FF60C76324009
:101710007E1C06EA03162E433243704EB0420ED0B2
:101720006F4EB0420BD0B0F1804F08D06D4EB0423A
:1017300005D06D4EB04202D06C4EB04206D14FF68D
:10174000FD76314044F00106314305E04FF6F57671
:10175000314044F00106314302830184F0BD70B58D
:1017600005460C465D4885420ED05D4885420BD04B
:10177000B5F1804F08D05B48854205D05A48854274
:1017800002D05A48854200D100E000BF208850B9FD
:101790002389A28861882846FFF7ABFFE1882846A5
:1017A000FFF79EFF25E0208804280AD12389A2881C
:1017B00061882846FFF753FFE1882846FFF742FF7C
:1017C00017E0208808280AD12389A2886188284642
:1017D000FFF7FBFEE1882846FFF7EEFE09E02389CC
:1017E000A28861882846FFF7A6FEE1882846FFF711
:1017F00095FE70BD2DE9F04105460C4600260127F7
:10180000608808B9022600E00026A088012801D1DE
:10181000022700E001272088A0B92389A2886188D7
:101820002846FFF766FFE1882846FFF759FF23891E
:101830003A4631462846FFF712FFE1882846FFF76F
:1018400001FF13E02389A28861882846FFF707FF7C
:10185000E1882846FFF7F6FE23893A4631462846B6
:10186000FFF747FFE1882846FFF73AFFBDE8F08120
:101870000A884B881A438B881A43CB881A430B89F2
:101880001A434B891A438B891A43A0F844207047A6
:101890004FF6FF71818000210180C180418001727B
:1018A00070470021018041808180C1800181418198
:1018B0008181C181704700210180418001218180A7
:1018C0000021C18001817047002101804180818019
:1018D000C18001814181818170470000002C01405D
:1018E000003401400004004000080040000C0040AB
:1018F00021B1028842F00102028004E002884FF622
:10190000FE731A400280704731B1B0F8442042F4AF
:101910000042A0F8442005E0B0F84420C2F30E02D3
:10192000A0F8442070471AB183890B43838102E0F9
:1019300083898B43838170478182704741EA020328
:10194000A0F8483070471AB183890B43838102E0C5
:1019500083898B438381704701894FF6F872114068
:10196000018170470A46002101894FF68F731940A3
:1019700011430181704730B504460D462946204683
:10198000FFF7F0FF208940F00700208130BD2DE9EE
:10199000F04104460D4616461F46602D06D13B46D3
:1019A000012231462046FFF75AFE05E03B46012260
:1019B00031462046FFF79DFE29462046FFF7D2FF1D
:1019C000208940F007002081BDE8F08130B50C4649
:1019D00000210189C9B24FF6FF7505EA03251543B9
:1019E00025432943018130BD2DE9F04105460E46CE
:1019F00017469846002443463A4631462846FFF7A4
:101A0000E5FF2C894FF6F870044044F007044FF6C8
:101A10008F70044044F070042C81BDE8F081F0B573
:101A200004460D4616461F463B463246294620468A
:101A3000FFF7CCFF208940F480402081F0BD018574
:101A4000828270470A46002101884FF68F73194041
:101A5000114301807047F0B50C4615461E46002123
:101A6000002200230189028B038C4FF6F87739405E
:101A700021434FF6FC473A4040F201173A434FF6F4
:101A8000DD773B404FF6FF7707EA06172F433B43CE
:101A9000018102830384F0BD0A460021018B4FF6C9
:101AA0008F7319401143018370470A460021018B4F
:101AB00048F6FF7319404FF6FF7303EA02231943F8
:101AC000018370470A460021818B4FF68F731940BE
:101AD0001143818370470A460021818B48F6FF73CA
:101AE00019404FF6FF7303EA0223194381837047BD
:101AF00021B1028842F08002028004E002884FF6A1
:101B00007F731A400280704721B1828842F004023C
:101B1000828004E082884FF6FB731A40828070470F
:101B200021B1828842F00802828004E082884FF668
:101B3000F7731A408280704721B1828842F0010217
:101B4000828004E082884FF6FE731A4082807047DC
:101B50000A460021018B4FF6F773194011430183A8
:101B600070470A460021018B4FF2FF7319404FF670
:101B7000FF7303EA02231943018370470A460021D9
:101B8000818B4FF6F77319401143818370470A46E2
:101B90000021818B4FF2FF7319404FF6FF7303EA68
:101BA00002231943818370470A460021018B4FF6B7
:101BB000FB7319401143018370470A460021018BD2
:101BC0004FF6FF3319404FF6FF7303EA0223194320
:101BD000018370470A460021818B4FF6FB73194041
:101BE0001143818370470A460021818B4FF6FF33F2
:101BF00019404FF6FF7303EA0223194381837047AC
:101C00000A460021018B4FF67F731940114301836F
:101C100070470A460021018BC1F30E014FF6FF7396
:101C200003EA02231943018370470A460021818B8E
:101C30004FF67F7319401143818370470A46002194
:101C4000818BC1F30E014FF6FF7303EA02231943A0
:101C5000818370470A460021018C4FF6FD731940BD
:101C60001143018470470A460021018C4FF6F77337
:101C700019401143018470470A460021018C4FF638
:101C8000DF7319404FF6FF7303EA0213194301840F
:101C900070470A460021018C4FF67F7319404FF6BA
:101CA000FF7303EA02131943018470470A460021B7
:101CB000018C4FF6FF5319404FF6FF7303EA0223DE
:101CC0001943018470470A460021018C4FF2FF73CB
:101CD00019404FF6FF7303EA02231943018470474A
:101CE0000A460021018C4DF6FF7319404FF6FF7331
:101CF00003EA023319430184704730B500230124FD
:101D00008C40A3B2048C9C430484048C02FA01F539
:101D1000ADB22C43048430BD30B5002304248C4084
:101D2000A3B2048C9C430484048C02FA01F5ADB286
:101D30002C43048430BD70B50346002000241846AF
:101D4000183001258D40ACB21D8CA5431D8409B10E
:101D5000082909D100EB6100056825F070050560D0
:101D60000568154305600EE00D1FC5F34E052844B8
:101D7000056825F4E045056005684FF6FF7606EA3C
:101D800002263543056070BD21B1028842F002028F
:101D9000028004E002884FF6FD731A40028070470B
:101DA00021B1028842F00402028004E002884FF66A
:101DB000FB731A400280704721B1828842F0800292
:101DC000828004E082884FF67F731A4082807047D9
:101DD00002884FF6F7731A40028002880A43028095
:101DE000704782884FF68F731A40828082880A4338
:101DF0008280704702894FF6F8731A400281028987
:101E00000A430281704702894FF67F731A400281AC
:101E100002890A4302817047818470478185704737
:101E2000818670470187704781877047A0F840100E
:101E3000704702884FF6FF431A40028002880A4327
:101E4000028070470146888E70470146088F7047B0
:101E50000146888F70470146B1F84000704701463F
:101E6000888C70470146088D704702460020138A0F
:101E70000B400BB1012000E000207047CA430282F2
:101E8000704730B50246002000230024158A05EA79
:101E90000103958905EA010413B10CB1012000E0AA
:101EA000002030BDCA4302827047000010B50446CE
:101EB000FB48844209D101218803FEF719FF002164
:101EC0004FF48040FEF714FF32E0F648844209D117
:101ED00001214804FEF719FF00214FF40030FEF7FE
:101EE00014FF25E0F048844209D101218804FEF75F
:101EF0000CFF00214FF48020FEF707FF18E0EB48AD
:101F0000844209D10121C804FEF7FFFE00214FF4ED
:101F10000020FEF7FAFE0BE0E548844208D10121DB
:101F20000805FEF7F2FE00214FF48010FEF7EDFEEB
:101F300010BD2DE9F04786B005460E460024A246A6
:101F400000BFA1460027B08900B100BF2F462C8AF0
:101F50004CF6FF700440F08804432C82AC894EF6A6
:101F6000F3100440B0883189084371890843044361
:101F7000AC81AC8A4FF6FF400440B0890443AC8288
:101F800001A8FEF72EFEC648874202D1DDF810A058
:101F900001E0DDF80CA0A88900F4004040B10AEB94
:101FA000CA0000EB0A1031684900B0FBF1F807E005
:101FB0000AEBCA0000EB0A1031688900B0FBF1F8A7
:101FC0006420B8FBF0F004012009642101FB1089B2
:101FD000A88900F4004040B1322000EBC900B0FBFA
:101FE000F1F000F00700044308E0322000EB091094
:101FF0006421B0FBF1F000F00F0004432C8106B027
:10200000BDE8F0874FF41651016000218180C18046
:1020100001810C21418100218181704710B5024668
:102020000020108A4FF2FF0318400B884C8823438E
:102030008C882343CC8823431843108210BD002191
:10204000018041808180C180704721B1828942F442
:102050000052828104E082894DF6FF731A4082812A
:102060007047F0B50346002400260025002040F606
:102070006A17B94200D100BF1846C1F3421401F0FB
:102080001F06012707FA06F5012C01D10C3004E0E8
:10209000022C01D1103000E014301AB107682F4330
:1020A000076002E00768AF430760F0BD1AB1838A9A
:1020B0000B43838202E0838A8B4383827047028AC8
:1020C0004FF6F0731A400282028A0A430282704776
:1020D00082894FF2FF731A40828182890A4382818A
:1020E000704721B1828942F00202828104E0828934
:1020F0004FF6FD731A4082817047028A4FF6DF73F4
:102100001A400282028A0A430282704721B1028A7F
:1021100042F48042028204E0028A4BF6FF731A40C6
:1021200002827047C1F308028280704701468888A6
:10213000C0F308007047818941F001018181704737
:10214000028BD2B20283028B42EA012202837047E1
:10215000028B02F47F420283028B0A4302837047A0
:1021600021B1828A42F02002828204E0828A4FF604
:10217000DF731A408282704721B1828A42F01002D6
:10218000828204E0828A4FF6EF731A40828270479F
:1021900021B1828A42F00802828204E0828A4FF6EC
:1021A000F7731A408282704721B1828942F400425B
:1021B000828103E08289C2F30E028281704721B1DD
:1021C000828A42F40062828204E0828A4FF2FF73C4
:1021D0001A4082827047828A4FF6FB731A408282CD
:1021E000828A0A438282704721B1828A42F00202C7
:1021F000828204E0828A4FF6FD731A408282704721
:1022000002460020B1F5007F00D100BF13880B40CB
:102210000BB1012000E00020704701F40072B2F51C
:10222000007F00D100BFCA430280704770B50246EC
:10223000002400230025002040F66A16B14200D198
:1022400000BFC1F3421501F01F03012606FA03F394
:10225000012D02D19689334006E0022D02D1168A63
:10226000334001E0968A33400C12012606FA04F44A
:102270001688344013B10CB1012000E0002070BD7D
:1022800010B50022002340F66A14A14200D100BF1D
:102290000A1201249440A3B2DC43048010BD000064
:1022A000003801400044004000480040004C00401D
:1022B000005000400146F948405C7047F74A11540D
:1022C00070470146F64830F8110070470146F5485E
:1022D00030F81100704710B5002000F0B5FF10BDB8
:1022E00010B5012000F0B0FF10BD10B50446204627
:1022F00000F0BAFF10BD70B504460D46FFF7EBFFC6
:10230000C4F30740FFF7F1FFC4F30720FFF7EDFF29
:1023100004F0F801091DC8B2FFF7E7FF2846FFF7F0
:10232000E4FFFFF7DDFF70BD70B504460025FFF741
:10233000D2FFC4F30740FFF7D8FFC4F30720FFF72D
:10234000D4FF04F0F800FFF7D0FF0020FFF7CDFF27
:102350000546FFF7C5FF284670BD2DE9F04104464C
:102360000F461546002615B9CFA004F039FFFFF738
:10237000B2FFC4F30740FFF7B8FFC4F30720FFF72D
:10238000B4FF04F0F801091DC8B2FFF7AEFF002644
:1023900004E0B85DFFF7A9FF701C86B2AE42F8DB1F
:1023A000FFF79EFF2846BDE8F0812DE9F041044685
:1023B0000F461546002615B9BBA004F011FFFFF724
:1023C0008AFFC4F30740FFF790FFC4F30720FFF72D
:1023D0008CFF04F0F800FFF788FF002605E00020DE
:1023E000FFF783FFB855701C86B2AE42F7DBFFF7EC
:1023F00077FF2846BDE8F08110B50446214600204D
:10240000FFF779FF10BD10B58020FFF7F5FF10BD75
:102410002DE9F04105460E460027B846002489E024
:10242000295D41F6087202EB4410FFF764FF315D4D
:1024300041F6086202EB4410FFF75DFF0020994966
:1024400021F81400964921F81400B7F5804F32DCCA
:10245000285D042816D004DC012807D0022823D1E7
:102460000AE0082814D010281ED117E04FF480602D
:102470008C4921F814001DE04FF40060894921F8CF
:10248000140017E04FF48050864921F8140011E041
:102490004FF40050834921F814000BE04FF48040C2
:1024A000804921F8140005E04FF400607C4921F8D0
:1024B000140000BF00BFB8F5804F32DC305D042847
:1024C00016D004DC012807D0022823D10AE008280E
:1024D00014D010281ED117E04FF48060704921F805
:1024E00014001DE04FF400606D4921F8140017E05E
:1024F0004FF480506A4921F8140011E04FF4005065
:10250000674921F814000BE04FF48040644921F83A
:10251000140005E04FF40060614921F8140000BF89
:1025200000BF604830F8140007445D4830F81400DC
:102530008044641C082CFFF673AFBDE8F08110B531
:102540000446042221469001FFF707FF10BD10B595
:102550000446042221469001FFF727FF10BD10B565
:102560000446042221464FF4A060FFF7F6FE10BD9A
:1025700010B50446062221464FF41060FFF7EDFE29
:1025800010BD10B50446042221464FF47060FFF7D9
:10259000E4FE10BD10B5044642F6087101EB44108C
:1025A0000221FFF7A8FE10BD10B504460422214603
:1025B0009001FFF7FAFE10BD10B504460422214633
:1025C0004FF4A060FFF7F1FE10BD10B504460622DF
:1025D00021464FF41060FFF7E8FE10BD10B5044629
:1025E000042221464FF47060FFF7DFFE10BD10B5E6
:1025F0004FF4A850FFF798FE10BD10B50446210A0D
:102600004FF4C850FFF777FEE1B24FF4D050FFF718
:1026100072FE10BD10B5044621464FF4D850FFF7A6
:102620006AFE10BD70B50446FFF7E1FF60EA0400E2
:10263000C5B229464FF4A850FFF75DFE70BD70B5D6
:1026400004460D46290A41F2082202EB4410FFF726
:1026500052FEE9B241F2083202EB4410FFF74BFEA2
:1026600070BD70B504460D4641F2086101EB44109F
:102670002946FFF740FE70BD10B504464FF40271C5
:1026800001EB4410FFF750FE10BD10B504464FF4A7
:10269000427101EB4410FFF747FE10BD48000020D7
:1026A000CC090020BC090020556E65787065637404
:1026B000656432206C656E67746820300D0A000016
:1026C00070B504460025002600BF42F2080101EB68
:1026D0004410FFF729FE064642F2081101EB4410B0
:1026E000FFF722FE00EB062086B27EB142F208011F
:1026F00001EB4410FFF718FE054642F2081101EB0A
:102700004410FFF711FE00EB052085B2B542DCD185
:10271000284670BD70B504460025002600BF42F271
:10272000086101EB4410FFF7FFFD064642F2087115
:1027300001EB4410FFF7F8FD00EB062086B27EB1F6
:1027400042F2086101EB4410FFF7EEFD054642F24C
:10275000087101EB4410FFF7E7FD00EB052085B29F
:10276000B542DCD1284670BD2DE9F04104460F4644
:1027700016460025A8460EB9BDE8F08142F2084190
:1027800001EB4410FFF7D0FD054642F2085101EB82
:102790004410FFF7C9FD00EB052085B2280200EBCD
:1027A000441000F11008324639464046FFF7D5FD87
:1027B000A81985B2290A42F2084202EB4410FFF739
:1027C0009AFDE9B242F2085202EB4410FFF793FD82
:1027D00000BFD1E72DE9F04104460F46164600251B
:1027E000A8462EB921461EA004F0FAFCBDE8F081EF
:1027F00042F6080101EB4410FFF796FD054642F64C
:10280000081101EB4410FFF78FFD00EB052085B2A6
:10281000280200EB441000F11808324639464046C1
:10282000FFF7C3FDA81985B2290A42F6080202EB98
:102830004410FFF760FDE9B242F6081202EB4410C3
:10284000FFF759FD00BFD1E770B504460D464FF4C0
:10285000027101EB44102946FFF74DFD70BD0000E9
:1028600043483A20256420556E6578706563746529
:102870006432206C656E67746820300D0A000000B9
:1028800008B58020ADF8000003208DF80200142068
:102890008DF8030069469548FDF754FF4020ADF8D8
:1028A000000003208DF8020010208DF80300694617
:1028B0008E48FDF747FF08BD10B580218B48FDF716
:1028C000EEFF40218948FDF7EAFF012000F02DFDD1
:1028D00080218648FDF7E5FF40218448FDF7E1FFB0
:1028E00010BD10B580218148FDF7DBFF40217F48F6
:1028F000FDF7D5FF012000F018FD80217B48FDF792
:10290000CEFF10BD70B505462E46002421E04021C3
:102910007648FDF7C6FF012000F007FD06FA04F037
:1029200000F08000802804D180217048FDF7B7FFB7
:1029300003E080216D48FDF7B4FF012000F0F5FCB5
:1029400040216A48FDF7ABFF012000F0EEFC601C5F
:10295000C4B2082CDBDB40216448FDF7A2FF012054
:1029600000F0E3FC80216148FDF799FF012000F0B1
:10297000DCFC70BD70B5002540215C48FDF791FF7F
:10298000012000F0D2FC80215848FDF788FF002488
:102990001BE0012000F0C9FC40215448FDF77FFFF7
:1029A000012000F0C2FC80215048FDF75EFF0128A5
:1029B00001D1012600E0002646EA4500C5B24021CB
:1029C0004A48FDF76EFF601CC4B2082CE1DB012011
:1029D00000F0ABFC284670BD10B5002440214348F0
:1029E000FDF75DFF012000F0A0FC01E0601C84B257
:1029F00080213E48FDF739FF012801D1FF2CF5DB8E
:102A000040213A48FDF74DFF012000F08EFC10BD3B
:102A100070B504460D4672B6FFF74EFFFE2101EA7F
:102A2000E41141F0A000FFF76DFFFFF7D5FF20464E
:102A3000E11704EB11610912A4EB0121CEB230467B
:102A4000FFF760FFFFF7C8FF2846FFF75BFFFFF7C0
:102A5000C3FFFFF746FF62B6052000F03FFC70BDE4
:102A600070B50446E6B272B6FFF726FFFE2101EA12
:102A7000E41141F0A000FFF745FFFFF7ADFF30463E
:102A8000FFF740FFFFF7A8FFFFF716FFA120FFF7B2
:102A900039FFFFF7A1FFFFF76DFF0546FFF721FFA5
:102AA00062B6284670BD2DE9F04105460E46174630
:102AB0009846002407E03A19B15C2A1990B2FFF752
:102AC000A7FF601C84B24445F5DBBDE8F08170B51A
:102AD00004460E46254605E0FF212846FFF798FFED
:102AE000681C85B2A019A842F6DC70BD000C01403C
:102AF00010B504464FF4847101EB44101021FFF728
:102B0000FAFB00BF4FF4847101EB4410FFF70CFC9B
:102B10000028F7D14FF4027101EB4410FF21FFF7B9
:102B2000EAFB10BD2DE9F04104460D4616469846D5
:102B300005F00F0001280FD005F00F0002280BD080
:102B400005F00F00032807D005F00F00042803D07C
:102B500005F00F00052841D12046FFF7C9FF45EADF
:102B60000801082202EB4410FFF7C5FB76B1310AD9
:102B70004FF4816202EB4410FFF7BDFBF1B24FF45A
:102B8000A16202EB4410FFF7B6FB15E0F84800889D
:102B9000401CF74908800A461288110A4FF48162E6
:102BA00002EB4410FFF7A7FBF14A11784FF4A16242
:102BB00002EB4410FFF79FFB4FF4847101EB4410CC
:102BC0000121FFF798FB00BF4FF4847101EB441023
:102BD000FFF7AAFB0028F7D1012700E000273846BD
:102BE000BDE8F08170B504464FF4427101EB44102A
:102BF000FFF79AFB132811D14FF4847101EB4410B5
:102C00000221FFF778FB00BF4FF4847101EB441001
:102C1000FFF78AFB0028F7D1012500E000252846B0
:102C200070BD2DE9F04105460C4616462078FF2878
:102C300008D16078FF2805D1A078FF2802D1E0787C
:102C4000FF2808D0207828B9607818B9A07808B98A
:102C5000E07800B10EB900275CE00127217840F64A
:102C6000084202EB4510FFF746FB617840F6085238
:102C700002EB4510FFF73FFBA17840F6086202EB3C
:102C80004510FFF738FBE17840F6087202EB45107B
:102C9000FFF731FB310A41F2080202EB4510FFF762
:102CA0002AFBF1B241F2081202EB4510FFF723FBB9
:102CB0004FF4847101EB45100421FFF71CFB00BFAA
:102CC0004FF4847101EB4510FFF72EFB0028F7D17C
:102CD00017E04FF4427101EB4510FFF725FB172871
:102CE00000D116E02846FFF7C7FC00F0080040B10D
:102CF0004FF4027101EB45100821FFF7FCFA0027A1
:102D000007E04FF4427101EB4510FFF70DFB15286A
:102D1000DFD100BF3846BDE8F08110B504464FF45E
:102D2000847101EB44100821FFF7E5FA00BF4FF46E
:102D3000847101EB4410FFF7F7FA0028F7D110BDBA
:102D40002DE9F04704468846164600250027A94687
:102D50002046FFF7BBFAB04204DA2046FFF7B6FA86
:102D6000074600E0374600BF2046FFF7A9FC814632
:102D70004FF4427101EB4410FFF7D6FA0546172DC8
:102D800003D01C2D01D0002701E0B945ECDB00BFCA
:102D90003A4641462046FFF7E7FC4FF4847101EBC9
:102DA00044102021FFF7A7FA00BF4FF4847101EB14
:102DB0004410FFF7B9FA0028F7D117E04FF4427139
:102DC00001EB4410FFF7B0FA0546172D0ED01C2D6D
:102DD0000CD0294667A004F003FA69A004F000FAB9
:102DE0002046FFF785FE0020BDE8F0874FF4027112
:102DF00001EB4410FFF798FA00F010001028DDD125
:102E00004FF4027101EB44101021FFF774FA4FF4F4
:102E1000027101EB44101021FFF76DFA3846E3E729
:102E20002DE9F04104460E4615460027002D15DD1C
:102E30002A4631462046FFF7CDFC4FF4847101EB62
:102E400044104021FFF757FA00BF4FF4847101EBA3
:102E50004410FFF769FA0028F7D12F463846BDE83D
:102E6000F0812DE9F0470446894616461D46089F25
:102E70004FF000082046FFF729FAB04204DA204656
:102E8000FFF724FA804600E0B046287828B9687831
:102E900018B9A87808B9E87800B117B94FF0000858
:102EA00063E0297840F6084202EB4410FFF723FA6A
:102EB000697840F6085202EB4410FFF71CFAA97833
:102EC00040F6086202EB4410FFF715FAE97840F685
:102ED000087202EB4410FFF70EFA390A41F20802B9
:102EE00002EB4410FFF707FAF9B241F2081202EBC5
:102EF0004410FFF700FA424649462046FFF734FCEB
:102F00004FF4847101EB44102021FFF7F4F900BF66
:102F10004FF4847101EB4410FFF706FA0028F7D153
:102F200012E04FF4027101EB4410FFF7FDF900F0DD
:102F3000080048B14FF4027101EB44101821FFF76B
:102F4000DAF90020BDE8F0874FF4027101EB44107C
:102F5000FFF7EAF900F010001028E2D14FF40271F7
:102F600001EB44101021FFF7C6F94046EAE70000E4
:102F700050000020737461747573203D2025640037
:102F800053454E445F4F4B2050726F626C656D210C
:102F9000210D0A002DE9FC5F05468A4691461E4632
:102FA000DDF8308000270024A346B9F1000F7CDD56
:102FB00042F6080101EB4510FFF7B6F9044642F668
:102FC000081101EB4510FFF7AFF900EB042084B2C4
:102FD000200200EB451000F1180B082101EB451011
:102FE000FFF7A2F900F00700022804D0032844D01C
:102FF000042879D179E0082269465846FFF7D5F9C7
:1030000004F1080084B29DF8000030709DF80100C2
:1030100070709DF80200B0709DF80300F0709DF88C
:103020000400A8F800009DF8050098F8001000EBD7
:103030000120A8F800009DF806709DF8070000EB3D
:10304000072087B2200200EB451000F1180B3A462A
:1030500051465846FFF7A9F9E01984B2210A42F611
:10306000080202EB4510FFF746F9E1B242F60812FA
:1030700002EB4510FFF73FF96BE006226946584620
:10308000FFF793F9A01D84B29DF8000030709DF801
:10309000010070709DF80200B0709DF80300F070A0
:1030A0009DF804709DF8050000E063E000EB072048
:1030B00087B2200200EB451000F1180B3A4651464A
:1030C0005846FFF772F9E01984B2210A42F6080265
:1030D00002EB4510FFF70FF9E1B242F6081202EBDE
:1030E0004510FFF708F934E032E0022269465846FD
:1030F000FFF75BF9A01C84B29DF800709DF80100F9
:1031000000EB0720801E87B240F2EA50874204DDC0
:103110001FA004F065F800BFFEE7200200EB451099
:1031200000F1180B3A4651465846FFF73EF9E019B0
:1031300084B2210A42F6080202EB4510FFF7DBF8E1
:10314000E1B242F6081202EB4510FFF7D4F800E0B6
:1031500000BF00BF4FF4847101EB45104021FFF721
:10316000CAF800BF4FF4847101EB4510FFF7DCF89B
:103170000028F7D13846BDE8FC9F10B504464FF44F
:10318000847101EB44102221FFF7B5F810BD000057
:10319000646174615F6C656E206F76657220313595
:1031A00031340D0A0000000000B587B0012188030A
:1031B000FDF791FD01210920FDF780FD4FF46040EE
:1031C000ADF8040003208DF8060018208DF80700E4
:1031D00001A93248FDF7B6FA4FF48050ADF804006B
:1031E00003208DF8060010208DF8070001A92B4858
:1031F000FDF7A8FA4FF480512848FDF750FB002056
:10320000ADF808004FF48270ADF80A000020ADF868
:103210000C00ADF80E00ADF810004FF40070ADF8E2
:1032200012000820ADF814000020ADF816000720A9
:10323000ADF8180002A91A48FDF7CAFD0121184887
:10324000FDF76BFE07B000BD10B504462CB94FF476
:1032500080511248FDF725FB05E0012C03D1210325
:103260000E48FDF71CFB10BD10B5044600BF02213F
:103270000B48FDF7D6FE0028F9D021460848FDF797
:103280007DFE00BF01210648FDF7CBFE0028F9D0E6
:103290000348FDF775FEC0B210BD0000000C0140F0
:1032A000003800404FF0E021096921F004014FF09F
:1032B000E0221161C21700EB5272C2F3C702A14BA8
:1032C0001A701946097801EB4102C2EBC1114FF6A1
:1032D000FF7202EAC1019C4A1180704701469A4A76
:1032E00012884A434FF0E0235A6100229A6101227A
:1032F0001A6100BF4FF0E022106900F001021AB11C
:1033000000F48032002AF5D000224FF0E0231A6149
:103310009A61704710B5044604E04FF47A70FFF7E5
:10332000DDFF641E002CF8D110BD0146854A1278DD
:103330004A434FF0E0235A6100229A6101221A6148
:1033400000BF4FF0E022106900F001021AB100F452
:103350008032002AF5D000224FF0E0231A619A61F2
:1033600070470146302905DB392903DCA1F1300023
:10337000C0B27047612905DB662903DCA1F1570063
:10338000C0B2F6E7412905DB462903DCA1F137008D
:10339000C0B2EEE70846ECE730B502460B46002423
:1033A00005E012F8010BFFF7DCFF04FB03041078C3
:1033B0000028F6D1A0B230BD30B502460B4600243D
:1033C00005E012F8010BFFF7CCFF04FB03041078B3
:1033D0000028F6D1204630BD2DE9F04104460D46C7
:1033E0001646701EC7B220223146284603F0BAFAAC
:1033F00000BF0A2094FBF0F100FB11403030C2B254
:103400003846791ECFB22A540A2094FBF0F080B2DD
:10341000041EEEDCBDE8F0812DE9F04104460F46C4
:10342000904626460CB1207810B90020BDE8F08106
:103430000BE03078FFF795FF0546002D03DBBD421A
:1034400001DA761C01E00020F0E730780028F0D1A6
:10345000B9B22046FFF7A0FFC8F800000120E5E759
:1034600010B50B46002104E0445C9C4200D142545C
:10347000491C445C002CF7D110BD014600200A060F
:10348000100C40EA11207047014600200806C1F3E5
:10349000072240EA0240C1F3074240EA022040EA24
:1034A000116070472DE9F04781460E4617461D46CC
:1034B0003146484603F074FA0446304603F098FA61
:1034C00004443946204603F06BFA8246AAEB040016
:1034D0001FFA80F842462146284603F073FA00207E
:1034E00005F80800BDE8F0872DE9F04188B00646F0
:1034F0000F463146684603F090FA6C4600251BE003
:1035000012A1204603F0A2FA04462078302809D1FF
:103510006078782806D11021A01CFFF73DFF00F04D
:10352000FF0805E00A212046FFF736FF00F0FF08FC
:1035300007F8058000246D1C042DE1DB08B0BDE810
:10354000F081000052000020540000202E000000F6
:1035500008B501211D20FDF7B1FB0F20ADF80000DB
:1035600003208DF8020010208DF803006946C24840
:10357000FDF7E8F80121C048FDF791F90221BE48A6
:10358000FDF78DF90421BC48FDF789F90821BA48F7
:10359000FDF785F94FF40070ADF8000003208DF8B9
:1035A000020010208DF803006946B448FDF7CAF800
:1035B0004FF40071B148FDF772F94020ADF80000FA
:1035C00003208DF8020048208DF803006946AC48BE
:1035D000FDF7B8F84FF48050ADF8000003208DF8E7
:1035E000020014208DF803006946A348FDF7AAF8ED
:1035F0004FF48051A048FDF752F908BD10B50446BC
:1036000021469D48FDF74DF910BD10B504462146F1
:103610009948FDF744F910BD10B54FF40071974873
:10362000FDF73FF90220FFF780FE4FF40071934849
:10363000FDF735F94FF4C860FFF750FE10BD70B5C7
:10364000002044682546A84770BD1CB58D48FEF78C
:103650008FFF8C480C30FEF782FF8A481030FEF74F
:103660006EFF88480830FEF78CFF87498748FEF7D1
:10367000CFFE4FF4FA60FEF7C0FF0320FEF7CAFF4B
:1036800001A8FEF7ABFF9DF8070000909DF80630FB
:103690009DF805209DF804107DA003F0A1FD01A870
:1036A000FEF78AFF9DF8070000909DF806309DF810
:1036B00005209DF804107BA003F092FD01A8FEF701
:1036C00073FF9DF8070000909DF806309DF80520D7
:1036D0009DF8041078A003F083FD1CBD86B07BA18B
:1036E00003C9CDE904017BA0006803907AA00068BB
:1036F00002907AA00068019079A00068009061486B
:10370000001F0399C1600299016101994161049907
:103710004160BDF814100181009981610020594970
:10372000091F0877012048770020C88381F820000E
:103730000120887200215348001FC17206B07047F3
:103740002DE9F0410027002500260BE04D48845D5F
:1037500021463846FFF75CF9781C87B2701C86B2A8
:10376000681C85B21D2DF1DBBDE8F08170B5002528
:10377000002407E02046FFF773F905464148055548
:10378000601C84B21D2CF5D33E48001F0079FF2831
:103790001AD13C48001F4079FF2815D13948001F35
:1037A0008079FF2810D13748001FC079FF280BD13E
:1037B0003448001F007AFF2806D13248001F407AA3
:1037C000FF2801D1FFF78AFF70BD08B54FF44070A4
:1037D000FCF7EAFE25208DF8000003208DF801009B
:1037E00000208DF8020001208DF803006846FCF7E8
:1037F000E0FE00214FF00060FCF70DFF08BD0EB5A4
:1038000001210846FDF767FA4FF47A70ADF804001D
:103810004720ADF800000020ADF80600ADF802002A
:1038200069464FF08040FDF707FD01218807FEF74C
:1038300025FB012211469007FEF775F80121880744
:10384000FEF756F800210120FDF745FA0EBD08B538
:103850004FF44070FCF7A8FE1C208DF800000020FB
:103860008DF801008DF8020001208DF803006846F4
:10387000FCF79FFE08BD000000080140000C01405D
:1038800000100140E00900205E00002056000020EA
:103890004950203A2025642E25642E25642E256467
:1038A0000D0A0000534E203A2025642E25642E2553
:1038B000642E25640D0A00004757203A2025642E07
:1038C00025642E25642E25640D0A00000008DC11F5
:1038D00011110000C0A80199FFFFFF00C0A801015D
:1038E0000808080800B585B0012144F20500FDF77D
:1038F000E5F918208DF803004FF40070ADF80000D2
:1039000003208DF8020069466648FCF71BFF04207F
:103910008DF803000002ADF8000069466148FCF72D
:1039200011FF4FF4E13001900020ADF80800ADF830
:103930000A00ADF80C00ADF810000C20ADF80E0038
:10394000012240F225515848FEF78BFB01A9564849
:10395000FEF7EFFA01215448FEF777FB05B000BDF2
:1039600070B504460D46E1B24F48FEF7DBFB00BFE1
:1039700080214D48FEF744FC0028F9D0204670BD58
:1039800010B5044621464848FEF7CCFB00BF802115
:103990004548FEF735FC0028F9D010BD10B50446A7
:1039A0000BE014F8011B4048FEF7BCFB00BF802170
:1039B0003D48FEF725FC0028F9D020780028F0D1FA
:1039C00010BD2DE9F04F8BB040F225513648FEF77F
:1039D0002DFC00285ED0C821344802F0CAFF34A074
:1039E00003F0FEFB02F09AFF322190FBF1F201FBA3
:1039F0001205284603F065F9044602F08FFF6421A2
:103A000090FBF1F201FB1205284603F05AF98146BA
:103A100002F084FF4FF47A7190FBF1F201FB120582
:103A2000284603F04EF9824602F078FF4FF47A718F
:103A300090FBF1F201FB1205284603F042F98346A0
:103A4000584603F07CF905460E46504603F077F9D8
:103A500007468846484603F072F9CDE9080120463A
:103A600003F06DF9CDE90278CDE90456CDE9060100
:103A7000DDE90801CDE9000110490C48DDE9062324
:103A800003F0BEFB09490EA003F0AAFB074910A0F2
:103A900000F022F840F225510348FEF7BEFB0BB0C0
:103AA000BDE8F08F00080140003801409A10002066
:103AB000BDF8C8EBD6D0B6CF0D0A0000E8880008E4
:103AC0006D6573736167652069732025730000005D
:103AD00077656E5F736869002DE9F047BAB00646F6
:103AE0000C465822E74924A802F02AFF002008903B
:103AF00009900A90204602F07BFF81464FF064084F
:103B0000C24600F0F9FAE0A027903C20ADF8A800EA
:103B100001208DF8AA00DDA03490DEA0379024AA01
:103B200041460BA802F083F9054629460BA800F090
:103B300098FA0746AF4202D0D9A003F051FB00BF6C
:103B400000BFE44A41460BA802F094FC0228F8D1D9
:103B500043460BAA06A907A802F014FA0128EFD1E0
:103B60009DF818000028EBD10BA9DBA003F038FB6F
:103B700041460BA802F0FDFE3046279902F004FFF3
:103B80000896CDE9054908A807C802AB07C300207D
:103B9000009003460246414601900BA802F049FD01
:103BA000054629460BA800F05CFA074641460BA8DB
:103BB00002F0DFFEAF4203D1CEA003F011FB02E022
:103BC000D3A003F00DFB00203AB0BDE8F0872DE94B
:103BD000F04FDDB007468A465822AA49583147A817
:103BE00002F0AEFE0024002046908346C826012045
:103BF0000A9000200790089009900690814600F0F6
:103C00004BFA0446002C06DAC6A003F0E9FA204677
:103C10005DB0BDE8F08FC9A04A903C20ADF83401FA
:103C200001208DF8360199A057909AA05A9047AA82
:103C300031460BA802F0FBF8814649460BA800F07C
:103C400007FA04464C4502D097A003F0C9FA00BF1A
:103C500000BFBC4A31460BA802F00CFC0228F8D188
:103C600033460BAA04A905A802F08CF90128EFD16C
:103C70009DF810000028EBD10BA999A003F0B0FA31
:103C8000079706A807A90122CDE9002102900A980A
:103C900083B2002231460BA802F098FD81464946C6
:103CA0000BA800F0D5F904464C4502D07EA003F0E5
:103CB00097FA00BF00BFA34A31460BA802F0DAFB17
:103CC0000928F8D10BA803AB04AA0121CDE900060D
:103CD00005A802F0D3FD044603980028EAD19AA073
:103CE00003F07EFA079731460BA802F042FE01214D
:103CF0000846FCF7F0FFB2E031460BA802F0ACF941
:103D0000834659460BA800F0A3F9469046985845BB
:103D100002D065A003F064FA31460BA802F029FE38
:103D2000884A31460BA802F0A5FB0328E3D1002105
:103D30000120FCF7D0FF0BA841A940AACDE903065A
:103D4000CDE901213DA842AB43AA44A9009045A872
:103D500002F094F9044680A0409A419903F040FA99
:103D60005046409902F059FE514682A003F038FABD
:103D7000012C70D1504601F0CDF80590059800282F
:103D800061D080A1059801F0CBFCD0F810804146AD
:103D90007DA003F025FA7FA1059801F0C1FC057D07
:103DA0007EA1404602F02BFE70B935B10120FFF72D
:103DB00025FC7BA003F014FA41E00120FFF725FC6D
:103DC0007AA003F00DFA3AE07BA1404602F017FE1C
:103DD00070B935B17AA003F003FA0220FFF70EFCA8
:103DE0002DE00220FFF711FC78A003F0F9F926E09E
:103DF00079A1404602F003FE70B935B10820FFF703
:103E0000FDFB77A003F0ECF919E00820FFF7FDFBBC
:103E100076A003F0E5F912E077A1404602F0EFFD4D
:103E200068B935B10420FFF7E9FB75A003F0D8F9B4
:103E300005E00420FFF7E9FB74A003F0D1F9059831
:103E400000F066FA06E000F001FA0146049073A063
:103E500003F0C6F900BF01210846FCF73CFF002033
:103E6000FEF713FC17283FF447AF72A003F0B8F930
:103E70000020FEF70AFC0146059071A003F0B0F99E
:103E80000020C5E6A08700086D65000061646D69CB
:103E90006E00000070617373776F72640000000041
:103EA0007075626C69736820636F6E6E65637420F1
:103EB0007472616E73706F72745F73656E6450615B
:103EC000636B6574427566666572206572726F72A7
:103ED0000A0D0000874000085055424C49534820C5
:103EE000434F4E4E41434B206973206F6B20257327
:103EF0000D0A00005375636365737366756C6C79A6
:103F0000207075626C69736865640A0D00000000BA
:103F10005075626C697368206661696C65640A0D2E
:103F2000000000007472616E73706F72745F6F7066
:103F3000656E206572726F720A0D00004142434443
:103F4000000000007540000853554241434B206972
:103F500073206F6B0D0A00006D65737361676520D8
:103F6000617272697665642025643A2025730A0DB2
:103F7000000000006D65737361676520697320251B
:103F8000730000006C6564006C6564203D2025733F
:103F90000A0D000076616C756500000072656400B2
:103FA000526564204F6E0A0D0000000052656420C7
:103FB0004F66660A0D000000677265656E000000BE
:103FC000477265656E204F6E0A0D00004772656589
:103FD0006E204F66660A0D00626C75650000000079
:103FE000426C7565204F6E0A0D000000426C7565CD
:103FF000204F66660A0D000079656C6C6F770000D3
:1040000059656C6C6F77204F6E0A0D0059656C6CAA
:104010006F77204F66660A0D000000004572726FD0
:1040200072206265666F72653A205B25735D0A0DCA
:1040300000000000CDF8C2E7B6CFBFAA0000000024
:10404000676574536E5F53522069732025640000C6
:1040500070B504460D46AAB221460020FEF770FE58
:1040600070BD70B504460D46AAB221460220FEF787
:1040700067FE70BD70B504460D46AAB22146002009
:10408000FEF7CEFE70BD70B504460D46AAB22146BD
:104090000220FEF7C5FE70BD10B500234CF2503271
:1040A00001211846FEF73EFD0446012C05D00021F3
:1040B00037A003F095F800BFFEE7002139A003F018
:1040C0008FF806E04FF2AD0239490020FEF7A9FD56
:1040D00004460020FEF7D9FA1728F3D1012C05D0A9
:1040E000002134A003F07CF800BFFEE7002138A0D7
:1040F00003F076F8002010BD10B5002341F289329C
:1041000001210220FEF70EFD0446012C05D00221FC
:1041100033A003F065F800BFFEE7022135A003F0ED
:104120005FF806E04FF2AD0221490220FEF779FD6B
:1041300004460220FEF7A9FA1728F3D1012C05D076
:10414000022131A003F04CF800BFFEE7022135A0A8
:1041500003F046F8002010BD10B50020FEF7DDFD8D
:1041600034A003F03DF800BF0220FEF78EFA0028CD
:10417000FAD110BD10B50220FEF7CFFD30A003F03C
:104180002FF800BF0220FEF780FA0028FAD110BDF8
:1041900025643A536F636B6574204572726F720DBC
:1041A0000A00000025643A4F70656E65640D0A00D0
:1041B0000000002025643A536F636B657420436FE1
:1041C0006E6E656374204572726F720D0A00000096
:1041D00025643A436F6E6E65637465640D0A000072
:1041E00025643A536F636B657431204572726F7248
:1041F000310D0A0025643A736F636B657431204F8B
:1042000070656E65640D0A0025643A536F636B65D3
:104210007420436F6E6E65637431204572726F72E5
:104220000D0A000025643A436F6E6E656374656421
:10423000310D0A00636C6F7365300A0D00000000D9
:10424000636C6F7365310A0D00000000FE48006862
:10425000704770B504460D462CB9AC4201D0012020
:1042600070BD0020FCE70DB90120F9E705E02078DA
:1042700008B90020F4E7641C6D1C207802F047FBAD
:104280000646287802F043FB8642F0D0207802F000
:104290003EFB0646287802F03AFB301AE0E770B59C
:1042A0000446204602F0A4FB451C2846E74909685D
:1042B0008847060000D170BD2A462146304602F0EC
:1042C0003FFB3046F7E730B9E149E04A1160E14988
:1042D000E14A11607047016809B1016800E0DC49FA
:1042E000DA4A1160416809B1416800E0D949DA4A07
:1042F000116000BFEEE710B52820D449096888474F
:1043000004461CB12821204602F033FB204610BD94
:1043100070B5044622E02568A08900F4807020B9B9
:10432000A06810B1A068FFF7F3FFA08900F48070C7
:1043300028B9206918B1C849206909688847A08947
:1043400000F4007028B9206A18B1C349206A0968CE
:1043500088472046C049096888472C46002CDAD196
:1043600070BD2DE9F04F8BB083468A46002004468D
:1043700005460026B94F002188468946099001204C
:1043800008909AF800002D2802D1B54F0AF1010AD1
:104390009AF80000302801D10AF1010A9AF80000C9
:1043A000312822DB9AF8000039281EDC00BF1AF8F9
:1043B000011BA1F1300002F092FC0022A94BCDE9D3
:1043C00006012046294602F00AFCCDE90401DDE998
:1043D000062302F05DFB04460D469AF800003028E3
:1043E00003DB9AF800003928E1DD9AF800002E2856
:1043F00030D19AF8010030282CDB9AF801003928D6
:1044000028DC0AF1010A00BF1AF8011BA1F13000F3
:1044100002F065FC0022934BCDE9060120462946B7
:1044200002F0DDFBCDE90401DDE9062302F030FBFB
:1044300004460D460022894B4046494602F0C9FB1E
:10444000804689469AF80000302803DB9AF800007D
:104450003928D9DD9AF80000652803D09AF80000C1
:10446000452823D10AF1010A9AF800002B2802D12D
:104470000AF1010A08E09AF800002D2804D14FF053
:10448000FF3008900AF1010A08E01AF8010B3038F1
:10449000099901EB810100EB410009909AF80000B5
:1044A000302803DB9AF800003928EEDDDDE9082129
:1044B00001FB02F002F013FC42464B46CDE900013D
:1044C00002F0E6FA02460B46CDE9020100206549FA
:1044D00003F064FC22462B46CDE9060130463946FE
:1044E00002F07DFBCDE90401DDE9062302F077FB54
:1044F00004460D46CBE906452046294602F000FC5D
:10450000CBF814000320CBF80C0050460BB0BDE8EC
:10451000F08F0146491E41EA610141EAA10141EAE9
:10452000211141EA212141EA2141481C70472DE92E
:10453000F04104460E460CB1206810B90020BDE8D9
:10454000F081A06806446068B04203DBA16820687F
:104550000844F4E73046FFF7DCFF074638463B499E
:104560000968884705463DB93B492068096888477E
:10457000002060602060E2E725B12846D4E90012FF
:1045800002F0DEF9344920680968884767602560D1
:10459000A0682844D3E770B504460CB1206808B978
:1045A000002070BDA16820684518284602F020FA56
:1045B000A1680844F5E72DE9FC4782460E464FF016
:1045C0000009DAE90645002213462046294602F092
:1045D000C9FB13D12EB102213046FFF7A8FF814657
:1045E00004E002201949096888478146B9F1000FA3
:1045F00003D01DA00088A9F800009FE0DAF814009D
:1046000002F06DFB074622462B4602F0E2FA21F04B
:1046100000410022154BCDE9000102F0A3FB3ED87A
:10462000134A144B2046294602F09CFB37D800223F
:10463000114B2046294602F0ADFB30D806B31521B8
:104640003046FFF774FF19E0680000206C0000207E
:10465000317D0008E17C0008700000200000F03F80
:104660000000F0BF00002440300000000000B03C1B
:104670000000C0FFFFFFDF410000E0C1814604E011
:104680001520FA49096888478146B9F1000F55D0CD
:10469000F7A14846DAF8142002F0B2FD4EE02EB140
:1046A00040213046FFF743FF814604E04020EF49B8
:1046B000096888478146B9F1000F3FD02046294656
:1046C00003F0A0FA074622462B4602F082FA21F0B8
:1046D00000410022E74BCDE9000102F043FB0FD877
:1046E00025F000412746E44AE44B384602F03AFB05
:1046F00006D222462B46E2A1484602F081FD1DE08B
:1047000025F000412746E04AE04B384602F02AFBFC
:1047100007D325F000410022DD4B384602F03AFB7A
:1047200006D222462B46DBA1484602F069FD05E091
:1047300022462B46D8A1484602F062FD4846BDE815
:10474000FC87014600220878302806DB08783928E3
:1047500003DC08783038024415E00878412806DB8D
:104760000878462803DC0878373802440BE00878DC
:10477000612806DB0878662803DC0878573802448D
:1047800001E0002070471201491C0878302806DB40
:104790000878392803DC08783038024415E00878B6
:1047A000412806DB0878462803DC087837380244BD
:1047B0000BE00878612806DB0878662803DC0878B7
:1047C0005738024401E00020DCE71201491C087858
:1047D000302806DB0878392803DC087830380244B2
:1047E00015E00878412806DB0878462803DC0878BD
:1047F000373802440BE00878612806DB0878662821
:1048000003DC08785738024401E00020BAE71201BF
:10481000491C0878302806DB0878392803DC08783A
:104820003038024415E00878412806DB087846282D
:1048300003DC0878373802440BE00878612806DB8F
:104840000878662803DC08785738024401E0002025
:1048500098E7104696E72DE9F05F8346884608F111
:104860000104002798F80000222805D08B48C0F8E2
:1048700000800020BDE8F09F04E014F8011B5C29D3
:1048800000D1641C2078222804D0207810B1781C34
:104890000700F2D1781C7549096888478146B9F14B
:1048A000000F01D10020E5E708F101044D469EE02C
:1048B00020785C2804D014F8010B05F8010B96E071
:1048C000641C2078722818D006DC622809D066287B
:1048D0000BD06E287ED10CE0742812D07528F9D147
:1048E00013E0082005F8010B7FE00C2005F8010B10
:1048F0007BE00A2005F8010B77E00D2005F8010B9D
:1049000073E0092005F8010B6FE0601CFFF719FF49
:104910000646241DB6F55C4F02D3B6F5604F00D3B2
:1049200006B962E0B6F5584F1CD3B6F55C4F19D204
:1049300060785C2802D1A078752800D055E0E01C92
:10494000FFF7FFFE8246A41DBAF55C4F02D3BAF50D
:10495000604F00D349E0C6F30901504661F39F2040
:1049600000F580360427802E01D2012708E0B6F535
:10497000006F01D2022703E0B6F5803F00D2032783
:104980003D44012F20D0022F15D0032F0AD0042F31
:1049900024D106F0BF0040F08001681E054601707A
:1049A000B60900BF06F0BF0040F08001681E054652
:1049B0000170B60900BF06F0BF0040F08001681E1C
:1049C00005460170B60900BF3548C05D3043C1B22D
:1049D000681E00E005E00546017000BF00BF3D44D1
:1049E00003E0207805F8010B00BF00BF641C2078AD
:1049F000222803D0207800287FF45AAF00202870A6
:104A00002078222800D1641CCBF810900420CBF829
:104A10000C0020462EE72DE9F05F804689460027EE
:104A2000BB46454611E02878002802DD287820287A
:104A300005DB2878222802D028785C2801D10120C3
:104A400000E0002040EA0B0B6D1C28780028EAD11A
:104A5000BBF1000F3ED1A5EB0807B9F1000F21D043
:104A6000F91C4846FFF763FD064620E06C00002075
:104A7000256400000000B03C44F3C2E4E4E9634C68
:104A8000252E3066000000008DEDB5A0F7C6B03EC3
:104A900065CDCD4125650000256600006800002039
:104AA00050880008F81CFD4909688847064616B971
:104AB0000020BDE8F09F3446222004F8010B414657
:104AC000204601F0AAFF2220E0550021781C215445
:104AD0003046EEE7B8F1000F16D1B9F1000F05D05E
:104AE00003214846FFF723FD064604E00320EB4977
:104AF0000968884706460EB90020DAE7E8A1304683
:104B000001F08BFF3046D4E745460BE05146E5A067
:104B100001F064FF08B17F1C03E0BAF1200F00DA56
:104B20007F1D6D1C95F800A0BAF1000F02D0781C13
:104B30000700EBD1B9F1000F05D0F91C4846FFF78B
:104B4000F6FC064604E0F81CD44909688847064686
:104B50000EB90020ADE734464546222004F8010B8B
:104B600047E028781F280ADD2878222807D02878EF
:104B70005C2804D015F8010B04F8010B39E05C2027
:104B800004F8010B15F8011B8A460C2919D006DC24
:104B9000082912D0092920D00A2922D115E00D298F
:104BA00017D0222905D05C291BD15C2004F8010B09
:104BB0001EE0222004F8010B1AE0622004F8010B29
:104BC00016E0662004F8010B12E06E2004F8010BD9
:104BD0000EE0722004F8010B0AE0742004F8010BC7
:104BE00006E05246B1A1204602F00AFB641D00BF58
:104BF00000BF28780028B4D1222004F8010B00203F
:104C000004F8010B304654E770B504460D462946BA
:104C10002069FFF700FF70BD00E0401C20B1017863
:104C200011B101782029F8DD70472DE9F0470646DB
:104C30000C4620787B2804D09E4804600020BDE804
:104C4000F0870620F060601CFFF7E6FF044620783E
:104C50007D2801D1601CF2E7FFF74DFB0546B060EF
:104C6000B06808B90020EAE72046FFF7D5FF804684
:104C700041462846FFF7EFFD0746FFF7CDFF044604
:104C80000CB90020DBE72869286200202861207821
:104C90003A2803D0874804600020D0E7601CFFF763
:104CA000BBFF80464146284600F099F80746FFF7CB
:104CB000B3FF04460CB90020C1E731E0FFF71BFB4E
:104CC000070000D1BBE72F607D603D46601CFFF709
:104CD000A3FF814649462846FFF7BDFD8046FFF702
:104CE0009BFF04460CB90020A9E728692862002030
:104CF000286120783A2803D06E48046000209EE79F
:104D0000601CFFF789FF81464946284600F067F896
:104D10008046FFF781FF04460CB900208FE700BFF3
:104D200020782C28CAD020787D2801D1601C86E705
:104D300060480460002082E72DE9F04705460C46F4
:104D400020785B2804D05B4804600020BDE8F08731
:104D50000520E860601CFFF75FFF044620785D28AF
:104D600001D1601CF2E7FFF7C6FA0646A860A86802
:104D700008B90020EAE72046FFF74EFF804641468B
:104D8000304600F02CF80746FFF746FF04460CB902
:104D90000020DBE717E0FFF7AEFA070000D1D5E708
:104DA00037607E603E46601CFFF736FF814649460D
:104DB000304600F014F88046FFF72EFF04460CB989
:104DC0000020C3E700BF20782C28E4D020785D289D
:104DD00001D1601CBAE7374804600020B6E770B51F
:104DE00005460C460CB9002070BD042232A12046B5
:104DF00001F01CFE18B90220E860201DF4E705222E
:104E00002FA1204601F012FE18B90020E860601DB5
:104E1000EAE704222CA1204601F008FE20B9012077
:104E2000E8606861201DDFE72078222804D1214650
:104E30002846FFF710FDD7E720782D2805D02078E9
:104E4000302807DB2078392804DC21462846FFF784
:104E500088FAC9E720785B2804D121462846FFF765
:104E60006BFFC1E720787B2804D121462846FFF755
:104E7000DCFEB9E70F4804600020B5E72DE9F047F4
:104E800080460D4616460024FFF735FA07460020F7
:104E900008490860E7B9BDE8F08700006C00002011
:104EA00022220000225C080C0A0D0900752530340E
:104EB00078000000680000206E756C6C0000000037
:104EC00066616C7365000000747275650000000017
:104ED0004046FFF7A1FE814649463846FFF77FFF6F
:104EE00004462CB93846FFF713FA0020BDE8F087D6
:104EF00066B12046FFF790FE0446207830B1384670
:104F0000FFF706FAFE4804600020EFE705B12C60C9
:104F10003846EBE710B50446002211462046FFF75D
:104F2000ADFF10BD2DE9FF4F89B0884616461F46DC
:104F300000200890079006904FF0070A0025099876
:104F4000D0F80890002002900190009004E00298B0
:104F5000401C0290D9F80090B9F1000FF7D10298E7
:104F6000002835D157B116B108F1040000E0032044
:104F700001463846FFF7DBFA069009E016B108F162
:104F8000040100E003210846DE49096888470690CD
:104F9000069818B900200DB0BDE8F08F069C7B2064
:104FA00004F8010B66B10A2004F8010B002503E0A8
:104FB000092004F8010B6D1CA8F10100A842F7DCE0
:104FC0007D2004F8010B002004F8010B0698E2E7AD
:104FD000002F77D0BD680EB1022000E0012082468C
:104FE0000AF101013846FFF7A2FA04460CB9002085
:104FF000D1E77B2004F8010B16B10A2004F8010B5D
:1050000000202070B8685044B8600998D0F8089023
:1050100008F1010868E0B6B141463846FFF787FA63
:1050200004460CB90020B6E70020039005E00920F3
:1050300004F8010B0398401C039003984045F6DBED
:10504000B8684044B8603946D9F82000FFF7E3FC5F
:105050003846FFF7A0FAB8600EB1022000E0012048
:10506000824651463846FFF762FA04460CB90020E2
:1050700091E73A2004F8010B16B1092004F8010B5E
:10508000B8685044B8603B4632464146484600F056
:1050900078FA3846FFF77FFAB8600EB1012000E0D9
:1050A0000020D9F8001009B1012100E0002100EB37
:1050B000010A0AF101013846FFF739FA044614B92A
:1050C000002068E734E0D9F8000010B12C2004F883
:1050D000010B16B10A2004F8010B00202070B868FB
:1050E0005044B860D9F80090B9F1000F93D116B1CF
:1050F00008F1010000E0022001463846FFF717FAE8
:1051000004460CB9002046E74EB1002503E0092013
:1051100004F8010B6D1CA8F10100A842F7DC7D200A
:1051200004F8010B0020207038682844069005E13F
:10513000029988007349096888470890089808B957
:10514000002028E7029988006E490968884707907F
:10515000079828B96C4908980968884700201AE719
:1051600002988100089801F004FC029881000798D9
:1051700001F0FFFB0998D0F8089008F1010806B18A
:10518000C2442EE00021D9F82000FFF744FC04902F
:10519000079941F82500002332464146484600F071
:1051A000F0F929466D1C0590089A42F821000498F0
:1051B00098B1059888B1059801F01AFC83460498C7
:1051C00001F016FC0BEB0001891C16B108F102007E
:1051D00000E000200844824401E001200190D9F859
:1051E0000090B9F1000FCDD1019820B95046454942
:1051F000096888470690069808B90120019001982F
:1052000018B3002514E0079850F8250028B1079935
:1052100051F825003C4909688847089850F825004E
:1052200028B1089951F825003749096888476D1C4D
:1052300002988542E7DB3449079809688847324974
:105240000898096888470020A5E67B210698017028
:105250000698441C16B10A2004F8010B00202070A7
:10526000002548E05EB10020039005E0092004F825
:10527000010B0398401C039003984045F6DB079907
:1052800051F8250001F0B4FB0090079850F8251064
:105290002046009A01F054FB009804443A2004F898
:1052A000010B16B1092004F8010B089850F82510DD
:1052B000204601F0B2FB089951F8250001F098FB57
:1052C00004440298401EA84202D02C2004F8010B8E
:1052D00016B10A2004F8010B00202070079951F83C
:1052E0002500094909688847089951F825000649A9
:1052F000096888476D1C02988542B3DB024905E0C6
:10530000680000206C0000207000002007980968E9
:105310008847F7490898096888474EB1002503E097
:10532000092004F8010B6D1CA8F10100A842F7DC6C
:105330007D2004F8010B002004F8010B06982AE6F2
:105340002DE9FF4F85B092461E464FF0000B052019
:1053500003900598D0F80880D946002500200290D7
:10536000019003E009F10109D8F80080B8F1000FBD
:10537000F8D1B9F1000F16D12EB103213046FFF755
:10538000D6F8834604E00320DA4909688847834653
:10539000BBF1000F03D0D8A1584601F03EFB5846A0
:1053A00009B0BDE8F08F002E57D0B5680121304616
:1053B000FFF7BDF804460CB90020F1E75B20207030
:1053C000B068401CB0600598D0F808802EE03346E5
:1053D00052460699491C404600F0D3F83046FFF784
:1053E000DAF8B060D8F80000F0B1BAF1000F01D0DF
:1053F000022000E0012003900399491C3046FFF78A
:1054000096F804460CB90020CAE72C2004F8010BDA
:10541000BAF1000F02D0202004F8010B0020207008
:10542000B16803980844B060D8F80080B8F1000F64
:1054300002D002980028CAD002213046FFF777F840
:1054400004460CB90020ABE75D2004F8010B0020F6
:105450002070306800EB050B91E04FEA8900A54908
:105460000968884707460FB9002099E74FEA890184
:10547000384601F07EFA0598D0F8088021E0002334
:1054800052460699491C404600F07BF80490294694
:105490006D1C049847F82100049870B1049801F03D
:1054A000A7FA801CBAF1000F01D0012100E0002111
:1054B000014403980844039001E001200290D8F8C9
:1054C0000080B8F1000F02D002980028D7D00298CF
:1054D00020B988490398096888478346BBF1000FC3
:1054E00001D101200290029890B1002508E057F800
:1054F000250020B157F825007D49096888476D1CB3
:105500004D45F4DB38467A4909688847002047E76B
:105510005B208BF800000BF10104002020700025B7
:1055200021E057F8250001F063FA019057F82510A3
:105530002046019A01F004FA01980444A9F10100FF
:10554000A8420AD02C2004F8010BBAF1000F02D0B7
:10555000202004F8010B0020207057F82500644932
:10556000096888476D1C4D45DBDB38466049096892
:1055700088475D2004F8010B002004F8010B584611
:105580000EE72DE9F04104460F4690461D460026E1
:1055900014B90020BDE8F081002D49D0207B0728F8
:1055A00045D2DFE800F0101C04282E343C00052111
:1055B0002846FEF7BCFF064626B1AFF2047130461E
:1055C00001F02BFA33E006212846FEF7B0FF06462D
:1055D00026B1AFF21471304601F01FFA27E0052121
:1055E0002846FEF7A4FF064626B1AFF224713046E6
:1055F00001F013FA1BE029462046FEF7DCFF0646C1
:1056000015E029462046FFF7FFFA06460FE02B4635
:10561000424639462046FFF793FE064607E02B46F2
:10562000424639462046FFF77DFC064600BF37E07C
:10563000207B072833D2DFE800F00A1004161C2272
:105640002A00AFF28C70FEF72AFE064627E0AFF282
:105650009070FEF724FE064621E0AFF29470FEF74C
:105660001EFE06461BE000212046FEF7A4FF06466C
:1056700015E000212046FFF7C7FA06460FE0002399
:10568000424639462046FFF75BFE064607E0002308
:10569000424639462046FFF745FC064600BF00BF9C
:1056A000304677E710B5044600230122194620460C
:1056B000FFF767FF10BD10B5044600231A461946D0
:1056C0002046FFF75EFF10BDFEB505460C461646A8
:1056D00020460849096888470090019400200290FC
:1056E0006B46324600212846FFF74BFFFEBD000007
:1056F000700000206C0000205B5D000001468A689D
:10570000002001E0401C1268002AFBD170470246CD
:10571000906801E0491E006808B10029FADC704772
:1057200070B505460E46AC6800E024682CB13146E1
:10573000206AFEF78EFD0028F7D1204670BD01607B
:105740004860704770B50546FEF7D5FD04460CB9B4
:10575000002070BD28222946204601F0F1F80020E3
:105760002062E06840F48070E060002060602060AB
:105770002046EEE770B505460E46AC6806B970BD2A
:105780000CB9AE6009E000E0246814B1206800287C
:10579000FAD131462046FFF7D2FF00BFEFE770B5E0
:1057A00006460D46144604B970BD206A18B1FE497C
:1057B000206A096888472846FEF771FD2062214665
:1057C0003046FFF7D7FF00BFEEE770B506460D463F
:1057D000144604B970BDA08900F4007028B9206A8D
:1057E00018B1F149206A096888472562E06840F4E9
:1057F0000070E06021463046FFF7BCFF00BFE9E7DC
:1058000070B505460C462046FFF79CFF064631461C
:105810002846FFF7AFFF70BD2DE9F04105460E4663
:1058200014462046FFF78EFF07463A463146284683
:10583000FFF7B5FFBDE8F08110B502460B46916851
:1058400001E009685B1E09B1002BFADC09B90020F0
:1058500010BD486810B1D1E900042060086810B19B
:10586000D1E9004060609068884201D1086890608A
:105870000020086048600846EAE770B504460D4617
:1058800029462046FFF7D8FF0646FEF741FD70BDCA
:105890002DE9F04105460F460026AC6801E0761C74
:1058A00024682CB13946206AFEF7D3FC0028F6D1D3
:1058B0002CB131462846FFF7BFFFBDE8F08100203C
:1058C000FBE770B504460D4629462046FFF7E0FF8A
:1058D0000646FEF71DFD70BD2DE9F04106460F4658
:1058E0001446B56801E02D687F1E0DB1002FFADC6B
:1058F0002DB921463046FFF73DFFBDE8F081256018
:10590000686860606C60B068A84201D1B46001E072
:105910006068046000BFF0E72DE9F04106460F46DD
:105920001446B56801E02D687F1E0DB1002FFADC2A
:105930000DB9BDE8F0812868206068686060206863
:1059400008B120684460B068A84201D1B46001E0A9
:10595000606804600020686028602846FEF7D8FC74
:1059600000BFE6E72DE9F04105460E4617464FF029
:105970000008AC6802E008F1010824682CB1314647
:10598000206AFEF766FC0028F5D144B13046FEF7E8
:1059900086FC38623A4641462846FFF7BDFFBDE81F
:1059A000F08110B5FEF7A7FC04460CB10220E060C0
:1059B000204610BD10B5FEF79EFC04460CB1012038
:1059C000E060204610BD10B5FEF795FC04460CB112
:1059D0000020E060204610BD70B50546FEF78BFC48
:1059E000044624B10DB1012000E00020E060204613
:1059F00070BD70B505460E46FEF77DFC044644B109
:105A00000320E060C4E906562846314601F078F9E3
:105A10006061204670BD70B50546FEF76CFC04461B
:105A20002CB10420E0602846FEF739FC20612046B6
:105A300070BD10B5FEF75FFC04460CB10520E060B8
:105A4000204610BD10B5FEF756FC04460CB10620EA
:105A5000E060204610BD2DE9F05F81468A460025B2
:105A6000AB46FFF7E6FF0646002410E059F8240095
:105A700001F035F90746FFF7BCFF05460CB9B560E4
:105A800003E029465846FFF75AFEAB46641C0EB1A8
:105A90005445EBDB3046BDE8F09F2DE9F05F8146D1
:105AA0008A460025AB46FFF7C4FF0646002410E0F7
:105AB00059F8240001F043F90746FFF79AFF05461D
:105AC0000CB9B56003E029465846FFF738FEAB46EF
:105AD000641C0EB15445EBDB3046BDE8F09F2DE968
